:020000040800F2
:1000000080540020318000086D7F00086F7F000859
:10001000717F0008737F0008757F000800000000F2
:1000200000000000000000000000000079730008DC
:10003000777F00080000000021730008797F000826
:10004000B9800008BD800008C1800008C580000894
:10005000C9800008CD800008D1800008D580000844
:10006000D9800008DD800008E1800008E5800008F4
:10007000E9800008ED800008F1800008F5800008A4
:10008000F9800008FD800008018100080581000852
:10009000098100080D810008118100081581000800
:1000A000198100081D8100082181000825810008B0
:1000B000298100082D810008318100083581000860
:1000C000398100083D810008418100084581000810
:1000D00049810008797D00084D81000851810008A0
:1000E0005581000859810008000000005D8100086A
:1000F0006181000865810008698100086D81000840
:100100007181000875810008798100087D810008EF
:100110008181000885810008898100088D8100089F
:100120009181000895810008998100089D8100084F
:10013000A1810008A5810008A9810008AD810008FF
:1001400000000000000000000000000000000000AF
:10015000B1810008B5810008B9810008BD8100089F
:10016000C1810008C5810008C9810008CD8100084F
:10017000D1810008D5810008D98100080000000065
:10018000DD810008E1810008E5810008E9810008BF
:10019000ED810008F1810008F5810008F98100086F
:1001A000FD8100080182000805820008098200081C
:1001B0000D820008118200081582000819820008CB
:1001C0001D8200082182000825820008298200087B
:1001D0002D8200083182000835820008398200082B
:1001E0003D820008418200084582000849820008DB
:1001F0004D8200085182000855820008598200088B
:100200005D8200086182000865820008698200083A
:100210006D820008718200087582000879820008EA
:100220007D820008818200088582000800000000AD
:10023000898200088D820008000000009182000879
:1002400095820008998200089D820008A18200081A
:10025000A5820008A9820008AD820008B1820008CA
:10026000B5820008B9820008BD820008C18200087A
:10027000C5820008C9820008CD8200080000000085
:10028000D1820008D5820008D98200080000000051
:1002900000000000DD82000810B50400002C01D130
:1002A000012037E0A0690028FFD1D4F880000028A1
:1002B00005D1002084F87C00200001F09DFC242062
:1002C000C4F8800020680068400840002168086089
:1002D000200000F021F8012801D101201AE0A06AD5
:1002E000002802D0200001F047FB2068406830F46D
:1002F0009040216848602068806830F02A002168BA
:1003000088602068006850F00100216808602000C3
:1003100001F09FFB10BD00002DE9F84F86B00500ED
:100320005FF0000B00260024DFF8A812286888423E
:10033000FFD0AA682869024368690243E86902435A
:10034000686E024328680368DFF88C020340134399
:10035000286803602868436833F44053E86803431F
:1003600028684360D5F818802868884202D0286A37
:1003700050EA080828688268DFF86002024058EAFC
:100380000202286882602868C26A12091201686A3B
:1003900002432868C2622868914A90421ED191485F
:1003A000006810F0380000280AD008280AD0102869
:1003B0000AD018280AD020280AD028280AD00BE012
:1003C000012730E104272EE108272CE110272AE13C
:1003D000202728E1402726E1802724E12868824A57
:1003E00090421CD17F48006810F00700002808D018
:1003F00002280AD007D304280BD008D305280AD036
:100400000BE000270FE104270DE108270BE110277F
:1004100009E1202707E1402705E1802703E128685B
:10042000724A90421CD16F48006810F00700002803
:1004300008D002280AD007D304280BD008D30528F7
:100440000AD00BE00027EEE00427ECE00827EAE002
:100450001027E8E02027E6E04027E4E08027E2E0FC
:100460002868634A90421CD15E48006810F007007B
:10047000002808D002280AD007D304280BD008D3BC
:1004800005280AD00BE00027CDE00427CBE00827A1
:10049000C9E01027C7E02027C5E04027C3E0802738
:1004A000C1E02868534A90421CD14E48006810F0C1
:1004B0000700002808D002280AD007D304280BD050
:1004C00008D305280AD00BE00027ACE00427AAE0F7
:1004D0000827A8E01027A6E02027A4E04027A2E0F4
:1004E0008027A0E02868444A90421ED13D48006819
:1004F00010F0380000280AD008280AD010280AD0A6
:1005000018280AD020280AD028280AD00BE0012772
:1005100089E0042787E0082785E0102783E020276B
:1005200081E040277FE080277DE02868334A9042C1
:100530001CD12C48006810F00700002808D00228C1
:100540000AD007D304280BD008D305280AD00BE023
:10055000002768E0042766E0082764E0102762E0CF
:10056000202760E040275EE080275CE02868244A7E
:1005700090421CD11B48006810F00700002808D0EA
:1005800002280AD007D304280BD008D305280AD0A4
:100590000BE0002747E0042745E0082743E0102749
:1005A00041E020273FE040273DE080273BE02868EE
:1005B000884237D11348006810F00700002823D084
:1005C000022825D022D3042826D023D3052825D0DD
:1005D00026E000BF000C0058F369FFCFFFF4FF11C5
:1005E00000100140544402580044004000480040BC
:1005F000004C0040005000400014014000780040D2
:10060000007C00405844025802270CE004270AE00E
:10061000082708E0102706E0202704E0402702E032
:10062000802700E080272868884240F065843800F1
:10063000C0B202280ED0042850D0082800F09380C1
:10064000102800F0D580202800F06181402800F0BB
:10065000A181E2E102F04CF80100686A002801D1B2
:10066000012038E0686A012801D1022033E0686A7D
:10067000022801D104202EE0686A032801D1062057
:1006800029E0686A042801D1082024E0686A052866
:1006900001D10A201FE0686A062801D10C201AE067
:1006A000686A072801D1102015E0686A082801D17E
:1006B000202010E0686A092801D140200BE0686A18
:1006C0000A2801D1802006E0686A0B2802D14FF485
:1006D000807000E00120B1FBF0F4A0E103A802F07B
:1006E0001FF8686A002801D1012038E0686A0128F3
:1006F00001D1022033E0686A022801D104202EE0F3
:10070000686A032801D1062029E0686A042801D11B
:10071000082024E0686A052801D10A201FE0686AE1
:10072000062801D10C201AE0686A072801D11020A0
:1007300015E0686A082801D1202010E0686A0928BD
:1007400001D140200BE0686A0A2801D1802006E030
:10075000686A0B2802D14FF4807000E001200499F0
:10076000B1FBF0F45BE1684602F0EEF8686A00283D
:1007700001D1012038E0686A012801D1022033E06C
:10078000686A022801D104202EE0686A032801D19A
:10079000062029E0686A042801D1082024E0686A5C
:1007A000052801D10A201FE0686A062801D10C2023
:1007B0001AE0686A072801D1102015E0686A082845
:1007C00001D1202010E0686A092801D140200BE007
:1007D000686A0A2801D1802006E0686A0B2802D1E5
:1007E0004FF4807000E001200199B1FBF0F416E1B4
:1007F000DFF8BC090168890646D50168686A0028E7
:1008000001D1012038E0686A012801D1022033E0DB
:10081000686A022801D104202EE0686A032801D109
:10082000062029E0686A042801D1082024E0686ACB
:10083000052801D10A201FE0686A062801D10C2092
:100840001AE0686A072801D1102015E0686A0828B4
:1008500001D1202010E0686A092801D140200BE076
:10086000686A0A2801D1802006E0686A0B2802D154
:100870004FF4807000E00120DFF8602AC1F3C1016D
:10088000CA40B2FBF0F441E0686A002801D10120BF
:1008900038E0686A012801D1022033E0686A022842
:1008A00001D104202EE0686A032801D1062029E046
:1008B000686A042801D1082024E0686A052801D16B
:1008C0000A201FE0686A062801D10C201AE0686A35
:1008D000072801D1102015E0686A082801D12020DE
:1008E00010E0686A092801D140200BE0686A0A28F4
:1008F00001D1802006E0686A0B2802D14FF4807095
:1009000000E00120DFF8D419B1FBF0F487E0686A59
:10091000002801D1012038E0686A012801D10220B5
:1009200033E0686A022801D104202EE0686A0328B7
:1009300001D1062029E0686A042801D1082024E0BA
:10094000686A052801D10A201FE0686A062801D1DB
:100950000C201AE0686A072801D1102015E0686AA7
:10096000082801D1202010E0686A092801D1402020
:100970000BE0686A0A2801D1802006E0686A0B282B
:1009800002D14FF4807000E00120DFF8EC19B1FBD8
:10099000F0F444E0686A002801D1012038E0686A78
:1009A000012801D1022033E0686A022801D1042025
:1009B0002EE0686A032801D1062029E0686A04282D
:1009C00001D1082024E0686A052801D10A201FE02F
:1009D000686A062801D10C201AE0686A072801D14C
:1009E000102015E0686A082801D1202010E0686A0C
:1009F000092801D140200BE0686A0A2801D1802033
:100A000006E0686A0B2802D14FF4807000E00120F4
:100A10004FF40041B1FBF0F401E001200600002C8E
:100A200000F09B876968032041438C4205D36968C5
:100A30004FF480504143A14203D20120060000F050
:100A40008CBF3800C0B202280ED004285CD0082821
:100A500000F0AB80102800F0F980202800F09D8184
:100A6000402800F0E98136E201F042FE8146686AE2
:100A7000002801D1012038E0686A012801D1022054
:100A800033E0686A022801D104202EE0686A032856
:100A900001D1062029E0686A042801D1082024E059
:100AA000686A052801D10A201FE0686A062801D17A
:100AB0000C201AE0686A072801D1102015E0686A46
:100AC000082801D1202010E0686A092801D14020BF
:100AD0000BE0686A0A2801D1802006E0686A0B28CA
:100AE00002D14FF4807000E00120B9FBF0F24FF426
:100AF0008073686840080021E3FB02016A680023F4
:100B000002F084F98346E8E103A801F009FE686A6F
:100B1000002801D1012038E0686A012801D10220B3
:100B200033E0686A022801D104202EE0686A0328B5
:100B300001D1062029E0686A042801D1082024E0B8
:100B4000686A052801D10A201FE0686A062801D1D9
:100B50000C201AE0686A072801D1102015E0686AA5
:100B6000082801D1202010E0686A092801D140201E
:100B70000BE0686A0A2801D1802006E0686A0B2829
:100B800002D14FF4807000E001200499B1FBF0F233
:100B90004FF48073686840080021E3FB02016A6833
:100BA000002302F033F9834697E1684601F0CCFE5A
:100BB000686A002801D1012038E0686A012801D163
:100BC000022033E0686A022801D104202EE0686A1E
:100BD000032801D1062029E0686A042801D10820F1
:100BE00024E0686A052801D10A201FE0686A062807
:100BF00001D10C201AE0686A072801D1102015E005
:100C0000686A082801D1202010E0686A092801D10B
:100C100040200BE0686A0A2801D1802006E0686A5B
:100C20000B2802D14FF4807000E001200199B1FB44
:100C3000F0F24FF48073686840080021E3FB020182
:100C40006A68002302F0E2F8834646E1DFF86005B7
:100C50000168890652D50168686A002801D101201F
:100C600038E0686A012801D1022033E0686A02286E
:100C700001D104202EE0686A032801D1062029E072
:100C8000686A042801D1082024E0686A052801D197
:100C90000A201FE0686A062801D10C201AE0686A61
:100CA000072801D1102015E0686A082801D120200A
:100CB00010E0686A092801D140200BE0686A0A2820
:100CC00001D1802006E0686A0B2802D14FF48070C1
:100CD00000E00120DFF80426C1F3C101CA40B2FBE5
:100CE000F0F24FF48073686840080021E3FB0201D2
:100CF0006A68002302F08AF883464DE0686A00289B
:100D000001D1012038E0686A012801D1022033E0D6
:100D1000686A022801D104202EE0686A032801D104
:100D2000062029E0686A042801D1082024E0686AC6
:100D3000052801D10A201FE0686A062801D10C208D
:100D40001AE0686A072801D1102015E0686A0828AF
:100D500001D1202010E0686A092801D140200BE071
:100D6000686A0A2801D1802006E0686A0B2802D14F
:100D70004FF4807000E00120DFF86015B1FBF0F265
:100D80004FF48073686840080021E3FB02016A6841
:100D9000002302F03BF883469FE0686A002801D1F7
:100DA000012038E0686A012801D1022033E0686A36
:100DB000022801D104202EE0686A032801D1062010
:100DC00029E0686A042801D1082024E0686A05281F
:100DD00001D10A201FE0686A062801D10C201AE020
:100DE000686A072801D1102015E0686A082801D137
:100DF000202010E0686A092801D140200BE0686AD1
:100E00000A2801D1802006E0686A0B2802D14FF43D
:100E1000807000E00120DFF86015B1FBF0F24FF4C4
:100E20008073686840080021E3FB02016A680023C0
:100E300001F0ECFF834650E0686A002801D10120F0
:100E400038E0686A012801D1022033E0686A02288C
:100E500001D104202EE0686A032801D1062029E090
:100E6000686A042801D1082024E0686A052801D1B5
:100E70000A201FE0686A062801D10C201AE0686A7F
:100E8000072801D1102015E0686A082801D1202028
:100E900010E0686A092801D140200BE0686A0A283E
:100EA00001D1802006E0686A0B2802D14FF48070DF
:100EB00000E001204FF40041B1FBF0F24FF48073E9
:100EC000686840080021E3FB02016A68002301F022
:100ED0009DFF834601E001200600BBF5407F07D35C
:100EE000BBF5801F04D22868C0F80CB000F035BDF7
:100EF0000120060000F031BDE869B0F5004F40F078
:100F0000A1823800C0B2002811D001285CD004288A
:100F100000F0A780082800F0F280102800F03D8142
:100F2000202800F0DD81402800F0288272E202F0E3
:100F3000DCFA8146686A002801D1012038E0686A3D
:100F4000012801D1022033E0686A022801D104207F
:100F50002EE0686A032801D1062029E0686A042887
:100F600001D1082024E0686A052801D10A201FE089
:100F7000686A062801D10C201AE0686A072801D1A6
:100F8000102015E0686A082801D1202010E0686A66
:100F9000092801D140200BE0686A0A2801D180208D
:100FA00006E0686A0B2802D14FF4807000E001204F
:100FB000B9FBF0F06968490811EB40016868B1FBC2
:100FC000F0FB1FFA8BFB27E202F09CFA8146686A6D
:100FD000002801D1012038E0686A012801D10220EF
:100FE00033E0686A022801D104202EE0686A0328F1
:100FF00001D1062029E0686A042801D1082024E0F4
:10100000686A052801D10A201FE0686A062801D114
:101010000C201AE0686A072801D1102015E0686AE0
:10102000082801D1202010E0686A092801D1402059
:101030000BE0686A0A2801D1802006E0686A0B2864
:1010400002D14FF4807000E00120B9FBF0F0696834
:10105000490811EB40016868B1FBF0FB1FFA8BFBFC
:10106000DAE103A801F05CFB686A002801D10120E5
:1010700038E0686A012801D1022033E0686A02285A
:1010800001D104202EE0686A032801D1062029E05E
:10109000686A042801D1082024E0686A052801D183
:1010A0000A201FE0686A062801D10C201AE0686A4D
:1010B000072801D1102015E0686A082801D12020F6
:1010C00010E0686A092801D140200BE0686A0A280C
:1010D00001D1802006E0686A0B2802D14FF48070AD
:1010E00000E001200499B1FBF0F06968490811EBB8
:1010F00040016868B1FBF0FB1FFA8BFB8CE168468E
:1011000001F022FC686A002801D1012038E0686AF9
:10111000012801D1022033E0686A022801D10420AD
:101120002EE0686A032801D1062029E0686A0428B5
:1011300001D1082024E0686A052801D10A201FE0B7
:10114000686A062801D10C201AE0686A072801D1D4
:10115000102015E0686A082801D1202010E0686A94
:10116000092801D140200BE0686A0A2801D18020BB
:1011700006E0686A0B2802D14FF4807000E001207D
:101180000199B1FBF0F06968490811EB400168680A
:10119000B1FBF0FB1FFA8BFB3EE1054801688906B5
:1011A00051D50168686A002804D101203BE000BFE6
:1011B00000440258686A012801D1022033E0686ABD
:1011C000022801D104202EE0686A032801D10620FC
:1011D00029E0686A042801D1082024E0686A05280B
:1011E00001D10A201FE0686A062801D10C201AE00C
:1011F000686A072801D1102015E0686A082801D123
:10120000202010E0686A092801D140200BE0686ABC
:101210000A2801D1802006E0686A0B2802D14FF429
:10122000807000E001202D4AC1F3C101CA40B2FB29
:10123000F0F06968490811EB40016868B1FBF0FB08
:101240001FFA8BFB49E0686A002801D1012038E0D1
:10125000686A012801D1022033E0686A022801D1BE
:1012600004202EE0686A032801D1062029E0686A7C
:10127000042801D1082024E0686A052801D10A2049
:101280001FE0686A062801D10C201AE0686A072866
:1012900001D1102015E0686A082801D1202010E053
:1012A000686A092801D140200BE0686A0A2801D148
:1012B000802006E0686A0B2802D14FF4807000E0BD
:1012C00001200649B1FBF0F06968490811EB4001C3
:1012D0006868B1FBF0FB1FFA8BFB9DE00090D00328
:1012E000686A002801D1012038E0686A012801D12C
:1012F000022033E0686A022801D104202EE0686AE7
:10130000032801D1062029E0686A042801D10820B9
:1013100024E0686A052801D10A201FE0686A0628CF
:1013200001D10C201AE0686A072801D1102015E0CD
:10133000686A082801D1202010E0686A092801D1D4
:1013400040200BE0686A0A2801D1802006E0686A24
:101350000B2802D14FF4807000E001200649B1FB58
:10136000F0F06968490811EB40016868B1FBF0FBD7
:101370001FFA8BFB50E000BF00093D00686A00289F
:1013800001D1012038E0686A012801D1022033E050
:10139000686A022801D104202EE0686A032801D17E
:1013A000062029E0686A042801D1082024E0686A40
:1013B000052801D10A201FE0686A062801D10C2007
:1013C0001AE0686A072801D1102015E0686A082829
:1013D00001D1202010E0686A092801D140200BE0EB
:1013E000686A0A2801D1802006E0686A0B2802D1C9
:1013F0004FF4807000E001204FF40041B1FBF0F0A9
:101400006968490811EB40016868B1FBF0FB1FFAFD
:101410008BFB01E001200600BBF1100F0FD3BBF5E1
:10142000803F0CD24FF6F07111EA0B01CBF3420072
:1014300001438A46504680B22968C8608DE2012087
:1014400006008AE23800C0B2002811D001285BD023
:10145000042800F0A580082800F0EF80102800F094
:101460003981202800F0D581402800F01D8266E2F5
:1014700002F03BF88146686A002801D1012038E07B
:10148000686A012801D1022033E0686A022801D18C
:1014900004202EE0686A032801D1062029E0686A4A
:1014A000042801D1082024E0686A052801D10A2017
:1014B0001FE0686A062801D10C201AE0686A072834
:1014C00001D1102015E0686A082801D1202010E021
:1014D000686A092801D140200BE0686A0A2801D116
:1014E000802006E0686A0B2802D14FF4807000E08B
:1014F0000120B9FBF0F0696810EB51006968B0FB9E
:10150000F1FB1FFA8BFB1CE201F0FCFF8146686ACD
:10151000002801D1012038E0686A012801D10220A9
:1015200033E0686A022801D104202EE0686A0328AB
:1015300001D1062029E0686A042801D1082024E0AE
:10154000686A052801D10A201FE0686A062801D1CF
:101550000C201AE0686A072801D1102015E0686A9B
:10156000082801D1202010E0686A092801D1402014
:101570000BE0686A0A2801D1802006E0686A0B281F
:1015800002D14FF4807000E00120B9FBF0F06968EF
:1015900010EB51006968B0FBF1FB1FFA8BFBD0E147
:1015A00003A801F0BDF8686A002801D1012038E0E5
:1015B000686A012801D1022033E0686A022801D15B
:1015C00004202EE0686A032801D1062029E0686A19
:1015D000042801D1082024E0686A052801D10A20E6
:1015E0001FE0686A062801D10C201AE0686A072803
:1015F00001D1102015E0686A082801D1202010E0F0
:10160000686A092801D140200BE0686A0A2801D1E4
:10161000802006E0686A0B2802D14FF4807000E059
:1016200001200499B1FBF0F0696810EB5100696882
:10163000B0FBF1FB1FFA8BFB83E1684601F084F9F4
:10164000686A002801D1012038E0686A012801D1C8
:10165000022033E0686A022801D104202EE0686A83
:10166000032801D1062029E0686A042801D1082056
:1016700024E0686A052801D10A201FE0686A06286C
:1016800001D10C201AE0686A072801D1102015E06A
:10169000686A082801D1202010E0686A092801D171
:1016A00040200BE0686A0A2801D1802006E0686AC1
:1016B0000B2802D14FF4807000E001200199B1FBAA
:1016C000F0F0696810EB51006968B0FBF1FB1FFA9C
:1016D0008BFB36E1DFF8A404016889064ED501686A
:1016E000686A002801D1012038E0686A012801D128
:1016F000022033E0686A022801D104202EE0686AE3
:10170000032801D1062029E0686A042801D10820B5
:1017100024E0686A052801D10A201FE0686A0628CB
:1017200001D10C201AE0686A072801D1102015E0C9
:10173000686A082801D1202010E0686A092801D1D0
:1017400040200BE0686A0A2801D1802006E0686A20
:101750000B2802D14FF4807000E00120DFF8202434
:10176000C1F3C101CA40B2FBF0F0696810EB51004F
:101770006968B0FBF1FB1FFA8BFB49E0686A00283F
:1017800001D1012038E0686A012801D1022033E04C
:10179000686A022801D104202EE0686A032801D17A
:1017A000062029E0686A042801D1082024E0686A3C
:1017B000052801D10A201FE0686A062801D10C2003
:1017C0001AE0686A072801D1102015E0686A082825
:1017D00001D1202010E0686A092801D140200BE0E7
:1017E000686A0A2801D1802006E0686A0B2802D1C5
:1017F0004FF4807000E00120DFF88413B1FBF0F0BB
:10180000696810EB51006968B0FBF1FB1FFA8BFBB4
:1018100097E0686A002801D1012038E0686A012851
:1018200001D1022033E0686A022801D104202EE0B1
:10183000686A032801D1062029E0686A042801D1DA
:10184000082024E0686A052801D10A201FE0686AA0
:10185000062801D10C201AE0686A072801D110205F
:1018600015E0686A082801D1202010E0686A09287C
:1018700001D140200BE0686A0A2801D1802006E0EF
:10188000686A0B2802D14FF4807000E00120DFF875
:10189000F412B1FBF0F0696810EB51006968B0FB1D
:1018A000F1FB1FFA8BFB4CE0686A002801D1012094
:1018B00038E0686A012801D1022033E0686A022812
:1018C00001D104202EE0686A032801D1062029E016
:1018D000686A042801D1082024E0686A052801D13B
:1018E0000A201FE0686A062801D10C201AE0686A05
:1018F000072801D1102015E0686A082801D12020AE
:1019000010E0686A092801D140200BE0686A0A28C3
:1019100001D1802006E0686A0B2802D14FF4807064
:1019200000E001204FF40041B1FBF0F0696810EBDA
:1019300051006968B0FBF1FB1FFA8BFB01E001204D
:101940000600BBF1100F06D3BBF5803F03D2286819
:10195000C0F80CB001E0012006000120A5F86A00E3
:101960000120A5F868000020E86600202867300004
:10197000C0B207B0BDE8F08F90F82810C90707D5AE
:1019800001684A6832F40032C16A0A4301684A6059
:1019900090F82810890707D501684A6832F4803228
:1019A000016B0A4301684A6090F82810490707D57F
:1019B00001684A6832F48022416B0A4301684A6038
:1019C00090F82810090707D501684A6832F40042E8
:1019D000816B0A4301684A6090F82810C90607D550
:1019E00001688A6832F48052C16B0A4301688A60D8
:1019F00090F82810890607D501688A6832F40052E9
:101A0000016C0A4301688A6090F82810490613D5D2
:101A100001684A6832F48012416C0A4301684A60E6
:101A2000416CB1F5801F07D101684A6832F4C002E9
:101A3000816C0A4301684A6090F82810090607D5AE
:101A400001684A6832F40022C16C0A4301684A60A6
:101A5000704738B504000020C4F8880002F07CF814
:101A600005002068006800070DD57FF07E400090DB
:101A70002B0000225FF40011200000F021F8002864
:101A800001D003201BE02068006840070DD57FF0DF
:101A90007E4000902B0000225FF48001200000F0C7
:101AA0000FF8002801D0032009E02020C4F88000AE
:101AB0002020C4F88400002084F87C00002032BD7F
:101AC0002DE9F04105000E0090461F00069C286895
:101AD000C0693040B04201D1012000E00020414601
:101AE000C9B2884246D114F1010FF0D002F034F8A7
:101AF000C01B844201D3002C16D12868006830F442
:101B0000D07029680860286880684008400029680B
:101B100088602020C5F880002020C5F884000020BF
:101B200085F87C00032026E0286800684007CED5B1
:101B30002868C0690005CAD54FF4006029680862AA
:101B40002868006830F4D0702968086028688068C8
:101B500040084000296888602020C5F880002020C7
:101B6000C5F884002020C5F88800002085F87C0096
:101B7000032000E00020BDE8F0810000004402588E
:101B80000090D00300093D0010B5384C3848206063
:101B90005FF4E13060600020A0600020E060002081
:101BA00020610C2060610020A0610020E061002025
:101BB0002062002060620020A0622000FEF76CFB23
:101BC000002801D002F0A2F80021200002F0DFF886
:101BD000002801D002F09AF80021200002F002F95A
:101BE000002801D002F092F8200002F0ADF80028A1
:101BF00001D002F08BF810BD10B586B0040014229D
:101C0000002101A802F066F92068194988422AD10A
:101C10001848016851F010010160006810F01000D0
:101C2000009000981448016851F0020101600068BA
:101C300010F00200009000984FF440400190022004
:101C4000029000200390002004900420059001A938
:101C50000A4802F049F900220521252002F008FB7C
:101C6000252002F017FB06B010BD0000404D0020FB
:101C700000100140F0440258E044025800040258A9
:101C80002DE9F843040000275FF0000820680001F8
:101C900031D5606E002809D0B0F5801F0DD0B0F5A9
:101CA000001F10D0B0F5401F14D014E0DFF82C0A4C
:101CB000016851F4003101600FE00221201D00F0A5
:101CC00073FF070009E0022114F1240000F0FAFF7D
:101CD000070002E001E0012007003800C0B2002840
:101CE00008D1DFF8FC190A6832F44012606E024332
:101CF0000A6000E0B8462068C0052FD5606D002856
:101D000006D0022811D00AD3042816D014D315E027
:101D1000DFF8C809016851F40031016010E00021CA
:101D2000201D00F041FF07000AE0002114F124000B
:101D300000F0C8FF070003E002E001E00120070017
:101D40003800C0B2002808D1DFF894190A68D20818
:101D5000D200606D02430A6000E0B846206880054A
:101D600032D5A06D002809D040280ED0802812D08E
:101D7000C02817D0B0F5807F15D015E0DFF85C09DA
:101D8000016851F40031016010E00021201D00F0D5
:101D90000BFF07000AE0002114F1240000F092FF7D
:101DA000070003E002E001E0012007003800C0B2B4
:101DB000002808D1DFF828190A6832F4E072A06D13
:101DC00002430A6000E0B8462068400537D5D4F8E1
:101DD000A40000280CD0B0F5001F10D0B0F5800F83
:101DE00013D0B0F5C00F17D0B0F5000F15D015E027
:101DF000DFF8E808016851F40031016010E00021CB
:101E0000201D00F0D1FE07000AE0002114F124009B
:101E100000F058FF070003E002E001E001200700A6
:101E20003800C0B2002809D1DFF8B8180A6832F4C7
:101E30006002D4F8A40002430A6000E0B8462068BB
:101E4000000537D5D4F8A80000280CD0B0F1807F69
:101E500010D0B0F1007F13D0B0F1407F17D0B0F1B7
:101E6000806F15D015E0DFF87408016851F4003177
:101E7000016010E00021201D00F096FE07000AE03E
:101E8000002114F1240000F01DFF070003E002E030
:101E900001E0012007003800C0B2002809D1DFF8B6
:101EA00044180A6832F0E062D4F8A80002430A60DD
:101EB00000E0B8462068800128D5A06C002814D026
:101EC000102804D0202809D030280DD00EE0DFF8EB
:101ED0000C08016851F40031016009E00221201D65
:101EE00000F062FE070003E002E001E001200700CD
:101EF0003800C0B2002808D1DFF8EC170A6832F0C9
:101F00003002A06C02430A6000E0B8462068C004BA
:101F100035D5E06D00280CD0B0F5805F10D0B0F55D
:101F2000005F13D0B0F5405F17D0B0F5804F15D0EB
:101F300015E0DFF8A807016851F40031016010E0F6
:101F40000021201D00F030FE07000AE0002114F1FE
:101F5000240000F0B7FE070003E002E001E00120EA
:101F600007003800C0B2002808D1DFF874170A68EB
:101F700032F4E042E06D02430A6000E0B8462068B7
:101F8000800433D5206E00280FD0B0F5803F0DD0EF
:101F9000B0F5003F10D0B0F5403F14D0B0F5802F21
:101FA00012D0B0F5A02F10D010E011E00121201DBB
:101FB00000F0FAFD07000BE0012114F1240000F00D
:101FC00081FE070004E003E002E001E001200700D9
:101FD0003800C0B2002808D1DFF804170A6832F4CC
:101FE000E022206E02430A6000E0B8462068400408
:101FF00035D5D4F8AC0000280FD0B0F1805F0DD0FB
:10200000B0F1005F10D0B0F1405F14D0B0F1804F5C
:1020100012D0B0F1A04F10D010E011E00121201D2E
:1020200000F0C2FD07000BE0012114F1240000F0D4
:1020300049FE070004E003E002E001E001200700A0
:102040003800C0B2002809D1DFF898160A6832F0CB
:10205000E042D4F8AC0002430A6000E0B8462068D1
:10206000000427D5E06E002813D0B0F1805F03D0C4
:10207000B0F1005F07D00DE0DFF86006016851F4B1
:102080000031016008E00121201D00F08DFD0700F6
:1020900002E001E0012007003800C0B2002808D1AA
:1020A000DFF83C160A6832F04052E06E02430A60E4
:1020B00000E0B8462068C00127D5606C002813D026
:1020C00002280AD002D303280DD00EE0DFF80C0658
:1020D000016851F40031016009E00221201D00F087
:1020E00063FD070003E002E001E001200700380083
:1020F000C0B2002808D1DFF8F0150A6892089200F3
:10210000606C02430A6000E0B8462068400279D55E
:10211000DFF8D895D9F8000050F48070C9F80000B5
:1021200001F01AFD0600D9F80000C00506D401F040
:1021300013FD801B6528F6D3032007003800C0B2CA
:1021400000285ED1DFF8C895D9F8000010F440707F
:10215000D4F8B01011F44071884212D0D9F80000C0
:1021600030F440700500D9F8000050F48030C9F810
:102170000000D9F8000030F48030C9F80000C9F838
:102180000050D4F8B000B0F5807F0FD101F0E4FC2E
:102190000600D9F80000800708D401F0DDFC801BA0
:1021A00041F289318842F4D3032007003800C0B2DD
:1021B000002824D1D4F8B00010F44070B0F5407F6E
:1021C0000DD1DFF85005016831F47C51D4F8B0200E
:1021D000DFF8443513EA12131943016005E0DFF814
:1021E0003405016831F47C510160D9F80000D4F85D
:1021F000B0100905090D0843C9F8000002E0B8460F
:1022000000E0B8462078C0072ED5A06F00280AD07D
:10221000082809D010280DD0182812D0202811D055
:10222000282810D010E011E00121201D00F0BCFC96
:1022300007000BE0012114F1240000F043FD07002A
:1022400004E003E002E001E0012007003800C0B232
:10225000002808D1DFF8C4140A6832F03802A06FF1
:1022600002430A6000E0B846207880072CD5606FF2
:10227000002808D002280DD006D3042812D010D38D
:10228000052810D010E011E00121201D00F08CFC89
:1022900007000BE0012114F1240000F013FD0700FA
:1022A00004E003E002E001E0012007003800C0B2D2
:1022B000002808D1DFF864140A68D208D200606FE1
:1022C00002430A6000E0B846207840072ED5D4F8D3
:1022D0009000002808D002280DD006D3042812D080
:1022E00010D3052810D010E011E00121201D00F0CE
:1022F0005BFC07000BE0012114F1240000F0E2FC7C
:10230000070004E003E002E001E0012007003800DC
:10231000C0B2002809D1DFF8CC130A68D208D20075
:10232000D4F8900002430A6000E0B84620788006A6
:1023300035D5D4F88C0000280FD0B0F1805F0DD0D7
:10234000B0F1005F10D0B0F1405F14D0B0F1804F19
:1023500012D0B0F1A04F10D010E011E00021201DEC
:1023600000F022FC07000BE0022114F1240000F031
:10237000A9FC070004E003E002E001E001200700FF
:102380003800C0B2002809D1DFF890130A6832F093
:10239000E042D4F88C0002430A6000E0B84620789E
:1023A000400635D5D4F8980000280FD0B0F5806FDE
:1023B0000DD0B0F5006F10D0B0F5406F14D0B0F56F
:1023C000805F12D0B0F5A05F10D010E011E00021C6
:1023D000201D00F0E9FB07000BE0022114F12400AE
:1023E00000F070FC070004E003E002E001E00120DF
:1023F00007003800C0B2002809D1DFF8E8120A68E7
:1024000032F4E052D4F8980002430A6000E0B84683
:102410002078000635D5D4F89C0000280FD0B0F500
:10242000005F0DD0B0F5804F10D0B0F5C04F14D084
:10243000B0F5004F12D0B0F5204F10D010E011E0F1
:102440000021201D00F0B0FB07000BE0022114F179
:10245000240000F037FC070004E003E002E001E0A4
:10246000012007003800C0B2002809D1DFF874123B
:102470000A6832F46042D4F89C0002430A6000E02B
:10248000B8462078000717D5D4F88000B0F5805FF3
:1024900009D1022114F1240000F014FC00280BD013
:1024A0000120804608E0DFF874120A6832F44052D6
:1024B000D4F8800002430A602078C00617D5D4F80B
:1024C0009400B0F5807F09D1022114F1240000F0BE
:1024D000F9FB00280BD00120804608E0DFF8041249
:1024E0000A6832F44072D4F8940002430A6020680B
:1024F000000329D5D4F8A000002806D0B0F5803F0D
:1025000009D0B0F5003F0DD00DE00021201D00F0F6
:102510004BFB070009E0022114F1240000F0D2FB7C
:10252000070002E001E0012007003800C0B20028E7
:1025300009D1DFF8B0110A6832F44032D4F8A000B3
:1025400002430A6000E0B846206840032AD5D4F868
:102550008400B0F5801F06D0B0F5001F09D0B0F59B
:10256000401F0DD00DE05D48016851F4003101605D
:1025700009E0012114F1240000F0A4FB070002E0AF
:1025800001E0012007003800C0B2002809D1DFF8BF
:102590008C110A6832F44012D4F8840002430A60B5
:1025A00000E0B8462068C00321D5E06C002803D0C5
:1025B000B0F5803F06D00BE04848016851F4003187
:1025C000016007E00221201D00F0EEFA070001E0A3
:1025D000012007003800C0B2002807D142490A682C
:1025E00032F48032E06C02430A6000E0B8462068B2
:1025F000800008D5022114F1240000F063FB0028BC
:1026000001D0012080462068800325D5E06F002896
:1026100011D0B0F5807F06D0B0F5007F09D0B0F5BD
:10262000407F07D008E02D48016851F40031016077
:1026300004E003E002E001E0012007003800C0B23E
:10264000002808D1DFF8D4100A6832F44072E06F35
:1026500002430A6000E0B8462068C00206D520495F
:102660000A6822F00042206F02430A602068C0001E
:1026700008D5DFF8A0100A6832F48042D4F8B4001C
:1026800002430A602068800206D515490A6832F0C4
:102690008072A06E02430A60206840000AD5DFF80D
:1026A0007410086830F4004008600A68D4F8B80074
:1026B00002430A602068002806D50B490A6832F0F8
:1026C0004052206D02430A604046C0B2002801D14A
:1026D000002000E00120BDE8F28300002C440258F5
:1026E00050440258584402584C440258004802587A
:1026F00080B500F0EAFEDFF8E816DFF8EC26126895
:10270000C2F30212895C11F01F01C84002BD000033
:102710007044025810440258CFFFFF00544402583E
:1027200030B4DFF878140A6812F003020968C1F3C4
:102730000531DFF86C341B6813F01003DFF8AC468A
:102740002468C4F3CC0404FB03F401EE104AB8EE91
:10275000411A002900F0EA80002A03D0022A70D032
:102760004FD38EE0DFF888462568AD0629D5DFF81F
:1027700034542468C4F3C104E54001EE905AB0EE2D
:10278000610AF8EE401A02EE101AB8EE422AC1EEC3
:10279000821ADFF860462468E405E40D02EE104A70
:1027A000B8EE422ADFED652AC1EE222A32EE222A55
:1027B000F7EE002A32EE222A61EE821AF0EE610A6A
:1027C0001EE001EE901AF8EE611A9FED5D2AC2EE4E
:1027D000211ADFF820462468E405E40D02EE104AD1
:1027E000B8EE422ADFED552AC1EE222A32EE222A25
:1027F000F7EE002A32EE222A61EE821AF0EE610A2A
:102800005EE001EE901AF8EE611A9FED4E2AC2EEDC
:10281000211ADFF8E0452468E405E40D02EE104AD1
:10282000B8EE422ADFED452AC1EE222A32EE222AF4
:10283000F7EE002A32EE222A61EE821AF0EE610AE9
:102840003EE001EE901AF8EE611A9FEDC62AC2EE44
:10285000211ADFF8A0452468E405E40D02EE104AD1
:10286000B8EE422ADFED352AC1EE222A32EE222AC4
:10287000F7EE002A32EE222A61EE821AF0EE610AA9
:102880001EE001EE901AF8EE611A9FED2E2AC2EEBC
:10289000211ADFF860452468E405E40D02EE104AD1
:1028A000B8EE422ADFED252AC1EE222A32EE222A94
:1028B000F7EE002A32EE222A61EE821AF0EE610A69
:1028C000DFF830452568C5F3462501EE905AF8EE4D
:1028D000611AB7EE002A71EE821AC0EEA11AFCEE60
:1028E000E11AC0ED001A2568C5F3064501EE905ABD
:1028F000F8EE611AB7EE002A71EE821AC0EEA11A44
:10290000FCEEE11AC0ED011A2468C4F3066401EE7E
:10291000904AF8EE611AB7EE002A71EE821AC0EE04
:10292000A11AFCEEE11AC0ED021A05E000240460D1
:10293000002444600024846030BC704700000046DE
:102940000024744C0024744A30B4DFF850120A6832
:1029500012F003020968C1F30551DFF844321B6825
:1029600013F48073DFF890442468C4F3CC0404FBB0
:1029700003F401EE104AB8EE411A002900F0EA8093
:10298000002A03D0022A70D04FD38EE0DFF86044D3
:102990002568AD0629D5DFF80C522468C4F3C104BC
:1029A000E54001EE905AB0EE610AF8EE401A02EEF0
:1029B000101AB8EE422AC1EE821ADFF840442468A9
:1029C000E405E40D02EE104AB8EE422ADFED662A75
:1029D000C1EE222A32EE222AF7EE002A32EE222A15
:1029E00061EE821AF0EE610A1EE001EE901AF8EE36
:1029F000611A9FED5E2AC2EE211ADFF800442468B6
:102A0000E405E40D02EE104AB8EE422ADFED562A44
:102A1000C1EE222A32EE222AF7EE002A32EE222AD4
:102A200061EE821AF0EE610A5EE001EE901AF8EEB5
:102A3000611A9FED4F2AC2EE211ADFF8C0432468C5
:102A4000E405E40D02EE104AB8EE422ADFED462A14
:102A5000C1EE222A32EE222AF7EE002A32EE222A94
:102A600061EE821AF0EE610A3EE001EE901AF8EE95
:102A7000611A9FED3C2AC2EE211ADFF880432468D8
:102A8000E405E40D02EE104AB8EE422ADFED362AE4
:102A9000C1EE222A32EE222AF7EE002A32EE222A54
:102AA00061EE821AF0EE610A1EE001EE901AF8EE75
:102AB000611A9FED2F2AC2EE211ADFF840432468E5
:102AC000E405E40D02EE104AB8EE422ADFED262AB4
:102AD000C1EE222A32EE222AF7EE002A32EE222A14
:102AE00061EE821AF0EE610ADFF810432568C5F343
:102AF000462501EE905AF8EE611AB7EE002A71EE03
:102B0000821AC0EEA11AFCEEE11AC0ED001A256887
:102B1000C5F3064501EE905AF8EE611AB7EE002AA9
:102B200071EE821AC0EEA11AFCEEE11AC0ED011A94
:102B30002468C4F3066401EE904AF8EE611AB7EE19
:102B4000002A71EE821AC0EEA11AFCEEE11AC0ED65
:102B5000021A05E00024046000244460002484601C
:102B600030BC704720BCBE4B000000460024744CB3
:102B70000024744A80B500F09DFBDFF88412DFF872
:102B80006022DFF860321B68C3F30323D25C12F0CB
:102B90001F02D0400860086802BD000028440258A7
:102BA0002C4402580090D0032DE9F84305000C0096
:102BB0000026DFF85092D9F8000010F00300032837
:102BC00001D101207CE0DFF82882D8F8000030F045
:102BD0008060C8F8000000F0BFFF0700D8F80000D0
:102BE000000106D500F0B8FFC01B0328F6D3032070
:102BF00066E0D9F8000030F47C30296850EA0130F2
:102C0000C9F800006868401EC005C00DA968491ECB
:102C1000490211F47E410843E968491E090411F490
:102C2000FE0108432969491E090611F0FE410843C7
:102C30007049086074490A6832F0C002686902434A
:102C40000A600A6832F02002A86902430A60086834
:102C500030F010000860654802686FF3CF02EB693E
:102C600052EAC3020260086850F010000860002CAD
:102C700004D1086850F4002008600AE0012C04D157
:102C8000086850F48010086003E0086850F40010F1
:102C90000860D8F8000050F08060C8F8000000F02C
:102CA0005BFF8146D8F80000000107D400F054FF14
:102CB000B0EB09000328F5D3032001E03000C0B2D7
:102CC000BDE8F2832DE9F84305000C000026DFF88B
:102CD0003491D9F8000010F00300032801D101203D
:102CE0007CE0DFF80C81D8F8000030F08050C8F8A4
:102CF000000000F031FF0700D8F80000800006D582
:102D000000F02AFFC01B0328F6D3032066E0D9F8A1
:102D1000000030F07C70296850EA0150C9F80000CA
:102D20006868401EC005C00DA968491E490211F41B
:102D30007E410843E968491E090411F4FE01084375
:102D40002969491E090611F0FE4108432B49086014
:102D50002D490A6832F44062686902430A600A68D1
:102D600032F40072A86902430A60086830F4807087
:102D70000860214802686FF3CF02EB6952EAC30290
:102D80000260086850F480700860002C04D1086864
:102D900050F4800008600AE0012C04D1086850F467
:102DA0000000086003E0086850F080700860D8F800
:102DB000000050F08050C8F8000000F0CDFE8146C1
:102DC000D8F80000800007D400F0C6FEB0EB090080
:102DD0000328F5D3032001E03000C0B2BDE8F28340
:102DE0002080000818440258204402583C440258ED
:102DF000004402583844025844440258404402589F
:102E000008000020284402582C440258BBBBE1B102
:102E1000B2F5803F80F07E80022A1ED98C46B1FB3D
:102E2000F2F102FB11C31B0443EA1043B3FBF2FCB3
:102E300002FB1C3380B240EA0343B3FBF2F002FB17
:102E4000103240EA0C4000237047022A05D984461C
:102E5000B0FBF2F002FB10C270474AB105D100F09E
:102E6000010249085FEA30007047002200237047E2
:102E700001F02EBA0B0002000021002070479042A2
:102E800071EB030CF6D3B3F5803F2FD2F0B5B3FA54
:102E900083F7B1FA81F4A7F10F0E3D1B5340CEF139
:102EA000200602FA0EF2F3415340B5F10F0746D85F
:102EB0000F3C2C444140C4F12006A040F141414068
:102EC000B1FBF3F603FB1611A2FB0645001BA9415B
:102ED00002D2761E8018594180EA010221FA0EF3CF
:102EE00062FA0EF200215A403046F0BD30B4B1FB18
:102EF000F3FC03FB1C11A2FB0C45001BA94103D2F0
:102F0000ACF1010C8018594130BC02460B466046BA
:102F100000217047B2F1807F65D3F0B5B2FA82F735
:102F2000B1FA81F4C7F10F063D1B22FA06F307F14F
:102F3000110EF24120355A40B5F10F07B8D9414082
:102F4000C4F12006A040F1414140B1FBF3FC03FB7A
:102F50001C11A2FB0C45001BA94103D2BCF1010CC2
:102F6000801859410F2F12D30F3FC90341EA504136
:102F7000B1FBF3F603FB1611A2FB0645D4EBC03000
:102F8000A94102D2761E8018594146EACC3C07B3CB
:102F90004140C7F12006B840F1414140B1FBF3F692
:102FA00003FB1611A2FB0645001BA94102D2761EA7
:102FB0008018594180EA010221FA0EF3C7F120047A
:102FC00062FA0EF20CFA07F05A402CFA04F1304380
:102FD000F0BD80EA010221FA0EF3002162FA0EF23E
:102FE00060465A40F0BD8C46B1FBF2F102FB11C3C2
:102FF0001B0243EA1063B3FBF2FC02FB1C331B020F
:103000004CEA002043EA1063B3FBF2FC02FB1C33E2
:103010001B024CEA002043EA1063B3FBF2FC02FB04
:103020001C331B024CEA002043EA1063B3FBF2FCA2
:1030300002FB1C324CEA0020002370472DE9F041CE
:1030400004000D00002C01D1012031E1DFF81075E2
:10305000386810F00F00A8420BD238680009000150
:1030600028433860386810F00F00A84201D00120D2
:103070001EE1207840070DD5DFF8C814086810F06D
:1030800070002269904205D20A6832F0700220690D
:1030900002430A60207800070DD5DFF8AC140868F9
:1030A00010F070006269904205D20A6832F0700236
:1030B000606902430A602078C0060DD5DFF88814E5
:1030C000086810F4E060A269904205D20A6832F400
:1030D000E062A06902430A60207880060DD5DFF81F
:1030E0006C14086810F07000E269904205D20A681A
:1030F00032F07002E06902430A60207880070DD543
:10310000DFF84014086810F00F00E268904205D222
:103110000A6812091201E06802430A602078C007B9
:103120004AD5DFF820140A6832F47062A0680243BE
:103130000A606068022806D1DFF8F40300688003A3
:103140001CD40120B4E06068032806D1DFF8E00356
:103150000068800112D40120AAE06068012806D12D
:10316000DFF8CC030068C00508D40120A0E0DFF838
:10317000C0030068400701D4012099E0DFF8B48360
:10318000D8F80010C908C90060680143C8F80010E9
:1031900000F0E2FC0600D8F8000010F0380061688A
:1031A000B0EBC10F08D000F0D7FC801B41F2893191
:1031B0008842F0D303207BE0207880070DD5DFF82C
:1031C0008413E0680A6812F00F02904205D20A6880
:1031D00012091201E06802430A60386810F00F001B
:1031E00085420BD2386800090001284338603868EE
:1031F00010F00F00A84201D0012059E020784007CC
:103200000DD5DFF8401320690A6812F07002904271
:1032100005D20A6832F07002206902430A60207801
:1032200000070DD5DFF8201360690A6812F07002FC
:10323000904205D20A6832F07002606902430A6067
:103240002078C0060DD5DFF80013A0690A6812F4D3
:10325000E062904205D20A6832F4E062A06902435B
:103260000A60207880060DD5DFF8E012E0690A6870
:1032700012F07002904205D20A6832F07002E069E2
:1032800002430A6000F016F8DFF8D812DFF8B42223
:103290001268C2F30322895C11F01F01C840DFF8F5
:1032A0009C120860DFF89802006801F029F8C0B2AB
:1032B000BDE8F08110B4DFF87C02006810F038003F
:1032C000002806D0082813D0102814D0182815D0AC
:1032D000F8E0DFF85C422068800606D5DFF8580287
:1032E0002468C4F3C104E04001E0DFF84C02EAE0E6
:1032F000DFF87402E7E0DFF87402E4E0DFF8500280
:10330000046814F0030422000068C0F305100100F3
:10331000DFF84002006810F001000300DFF83C0213
:103320000068C0F3CC0000FB03F002EE100AB8EE18
:10333000422AB0EE421A002900F0C280002A03D0CF
:10334000022A6ED04ED38BE0DFF8E4010468A406B5
:1033500029D5DFF8E4410068C0F3C100C44002EEA3
:10336000104AF0EE420AB8EE602A02EE901AF8EE29
:10337000622A82EE222ADFF8E0010068C005C00D53
:1033800002EE900AF8EE622A9FED653A81EE033A6A
:1033900072EE832AB7EE003A72EE832A22EE222AD8
:1033A000F0EE421A1DE002EE101AB8EE422ADFEDEE
:1033B0005D2A82EE822A68480068C005C00D02EED0
:1033C000900AF8EE622A9FED563A81EE033A72EEC9
:1033D000832AB7EE003A72EE832A22EE222AF0EE1A
:1033E000421A5BE002EE101AB8EE422ADFED4E2AD6
:1033F00082EE822A58480068C005C00D02EE900A8D
:10340000F8EE622A9FED463A81EE033A72EE832A85
:10341000B7EE003A72EE832A22EE222AF0EE421A2A
:103420003CE002EE101AB8EE422ADFED402A82EEAE
:10343000822A49480068C005C00D02EE900AF8EEE5
:10344000622A9FED373A81EE033A72EE832AB7EE95
:10345000003A72EE832A22EE222AF0EE421A1DE092
:1034600002EE101AB8EE422ADFED2F2A82EE822AEF
:1034700039480068C005C00D02EE900AF8EE622AD5
:103480009FED273A81EE033A72EE832AB7EE003AB7
:1034900072EE832A22EE222AF0EE421A2E480068AB
:1034A000C0F34620401C02EE100AB0EE420AB8EE0D
:1034B000402A81EE822ABCEEC22A12EE100A00E0F7
:1034C000002000E0284810BC704780B5FFF752FB91
:1034D0002749244A1B4B1B6813F00F03D25C12F0E0
:1034E0001F02D0400860086802BD80B5FFF7EDFFFD
:1034F0001C49154A1268C2F30212895C11F01F01BF
:10350000C84002BD80B5FFF7E0FF16490E4A1268B9
:10351000C2F30222895C11F01F01C84002BD000005
:10352000000000460024744C0024744A20BCBE4BAA
:1035300000440258104402580090D00308000020B4
:1035400004000020184402581C4402582044025829
:10355000284402582C44025830440258344402583B
:10356000002000522080000800093D0040787D01C5
:103570000C0000202DE9F0410400002C01D10120B5
:10358000CFE22078C0076CD5DFF89C05056815F000
:103590003805DFF898050768102D05D0182D0DD1D6
:1035A00017F00300022809D1DFF8840500688003C2
:1035B00057D56068002854D10120B2E26068B0F5A8
:1035C000803F06D1DFF86805016851F48031016061
:1035D00026E0606800280AD1DFF85405016831F45C
:1035E00080310160016831F48021016018E0606879
:1035F000B0F5A02F0AD1DFF83805016851F4802119
:103600000160016851F48031016009E0DFF82005B4
:10361000016831F480310160016831F4802101607A
:10362000606800280ED000F097FA0600DFF8000569
:103630000068800315D400F08FFA801B6528F5D34D
:1036400003206EE200F088FA0600DFF8E404006868
:10365000800306D500F080FA801B6528F5D303208F
:103660005FE22078800740F19580DFF8BC040568B0
:1036700015F03805DFF8B4040768002D04D0182DC4
:103680003DD117F0030F3AD1DFF8A484D8F8000039
:10369000400704D5E068002801D1012041E2D8F8B4
:1036A000001031F01901E0680143C8F8001000F083
:1036B00053FA0600D8F80000400706D400F04CFA90
:1036C000801B0328F6D303202BE200F06FFE41F2AB
:1036D0000401884209D2DFF85C04016831F47C31CE
:1036E000226951EA0231016008E0DFF8480401680C
:1036F00031F0FE41226951EA026101604AE0E0686E
:10370000002831D0DFF82884D8F8001031F01901F2
:10371000E0680143C8F8001000F01EFA0600D8F86F
:103720000000400706D400F017FA801B0328F6D3E8
:103730000320F6E100F03AFE41F20401884209D28A
:10374000DFF8F003016831F47C31226951EA02317B
:10375000016008E0DFF8DC03016831F0FE41226916
:1037600051EA0261016015E0DFF8C483D8F8000077
:1037700040084000C8F8000000F0EEF90600D8F854
:103780000000400706D500F0E7F9801B0328F6D3B8
:103790000320C6E12078C0067AD5DFF88C030568DF
:1037A00015F03805DFF884030768082D05D0182DBB
:1037B00027D117F00300012823D1DFF87403006834
:1037C000C00504D5E069802801D00120A9E100F0FE
:1037D000EDFD41F20401884209D2DFF85803016887
:1037E00031F0F841226A51EA8261016008E0DFF8B5
:1037F0004803016831F07C51226A51EA026101609C
:1038000046E0E06900282DD0DFF82483D8F80000D6
:1038100050F08000C8F8000000F09EF90600D8F8CB
:103820000000C00506D400F097F9801B0328F6D3EA
:10383000032076E100F0BAFD41F20401884208D28B
:10384000BC48016831F0F841226A51EA82610160A6
:1038500007E0B948016831F07C51226A51EA0261FF
:10386000016015E0DFF8C882D8F8000030F0800071
:10387000C8F8000000F070F90600D8F80000C00594
:1038800006D500F069F9801B0328F6D3032048E130
:103890002078000726D56069002811D0A74D286838
:1038A00050F00100286000F057F9060028688007F2
:1038B00018D400F051F9801B0328F7D3032030E11E
:1038C0009E4D286840084000286000F045F9060039
:1038D0002868800706D500F03FF9801B0328F7D33E
:1038E00003201EE12078800626D5A069002811D08B
:1038F0008F4D286850F48050286000F02DF90600A4
:103900002868800418D400F027F9801B0328F7D317
:10391000032006E1864D286830F48050286000F0CE
:103920001BF906002868800406D500F015F9801BF5
:103930000328F7D30320F4E02078400760D5804FB8
:10394000386850F48070386000F006F90500386877
:10395000C00506D400F000F9401B6528F7D303200A
:10396000DFE0A068012805D17648016851F0010127
:10397000016022E0A068002809D172480168490866
:1039800049000160016831F00401016015E0A068A0
:10399000052809D16B48016851F0040101600168F4
:1039A00051F00101016008E06648016849084900DA
:1039B0000160016831F004010160A06800280FD0A7
:1039C00000F0CAF806005F480068800718D400F0CD
:1039D000C3F8801B41F289318842F4D30320A0E070
:1039E00000F0BAF8060057480068800708D500F0D4
:1039F000B3F8801B41F289318842F4D3032090E070
:103A0000606A002800F08C804748006810F0380099
:103A1000182800F08380606A02286DD1444F38680E
:103A200030F08070386000F097F805003868800149
:103A300006D500F091F8401B0328F7D3032070E06F
:103A40003A490A6840480240A06A0243E06A52EAE2
:103A500000120A60206B401EC005C00D616B491E3C
:103A6000490211F47E410843A16B491E090411F477
:103A7000FE010843E16B491E090611F0FE410843AF
:103A800032490860324908684008400008603148FF
:103A900002686FF3CF02A36C52EAC30202600A68A5
:103AA00032F00C02206C02430A600A6832F0020213
:103AB000606C02430A60086850F48030086008684F
:103AC00050F400300860086850F4802008600868EE
:103AD00050F001000860386850F08070386000F0E5
:103AE0003BF80600386880011AD400F035F8801BD6
:103AF0000328F7D3032014E00D4D286830F08070C0
:103B0000286000F029F806002868800108D500F038
:103B100023F8801B0328F7D3032002E0012000E0F4
:103B20000020BDE8F08100BF10440258284402582C
:103B300000440258044402580C4402587444025889
:103B400000480258704402580CFCFFFF30440258F1
:103B50002C4402583444025801480068704700BFA2
:103B600028500020BFF34F8FBFF36F8F00206049B4
:103B70000860BFF34F8FBFF36F8F5E48016851F449
:103B800000310160BFF34F8FBFF36F8F704710B4E8
:103B9000002059490860BFF34F8F58480168C1F3AE
:103BA0004E32C1F3C900030043F6E07010EA421040
:103BB00050EA8370524C20601800431E0028F3D155
:103BC0001000421E0028ECD1BFF34F8F4948046813
:103BD00054F480340460BFF34F8FBFF36F8F10BC79
:103BE000704780B5FFF7BEFFFFF7D1FF00F0B4FBD1
:103BF00000F00BF8FDF7C8FF00F0E8FB00F066FEF0
:103C000000F072FE00F0D8FEFEE700B5CBB04C220B
:103C1000002109A800F05EF92022002101A800F08F
:103C200059F9BC2200211CA800F054F9022000F030
:103C3000A1FF002000903348016849084900016055
:103C4000006810F0010000902F48016851F44041D5
:103C50000160016811F440410091009901688904F4
:103C6000FCD5012009905FF480300A900220129068
:103C700002201390022014904020159002201690EC
:103C800002201790022018900C20199000201A9002
:103C900000201B9009A8FFF76DFC002801D000F060
:103CA00035F83F2001900320029000200390082067
:103CB000049040200590402006904FF480600790CB
:103CC00040200890022101A8FFF7B8F9002801D090
:103CD00000F01CF801201C9000203A901CA8FDF771
:103CE000CFFF002801D000F011F84BB000BD00005C
:103CF00050EF00E014ED00E084ED00E080ED00E026
:103D000060EF00E02C04005818480258704730B4A7
:103D1000002513E050F8042BD30744BFA9F1010399
:103D20009A18091F042942F8045BFAD213468C073B
:103D300044BF15809B1CC90748BF1D7050F8041B69
:103D40000029E7D130BC7047010091F87C000128C0
:103D500001D102201AE0012081F87C002420C1F862
:103D600080000868026808680068400840000B6826
:103D7000186032F000520020486608680260202077
:103D8000C1F88000002081F87C000020704770B5E9
:103D900004000D0094F87C00012801D1022020E0ED
:103DA000012084F87C002420C4F880002068066884
:103DB000206800684008400021680860206880682A
:103DC00020F06040284321688860200000F035F82A
:103DD000206806602020C4F88000002084F87C0061
:103DE000002070BD70B504000D0094F87C0001281F
:103DF00001D1022020E0012084F87C002420C4F8B6
:103E0000800020680668206800684008400021683B
:103E100008602068806830F060602843216888600E
:103E2000200000F00AF8206806602020C4F8800016
:103E3000002084F87C00002070BDFFB402A9234E4E
:103E4000D6E9007CC1E9007C6946214ED6E9007CB8
:103E5000C1E9007C416E002906D10121A0F86A1059
:103E60000121A0F868102DE008210A0008210B00AC
:103E700001688968490E11F007010C000168896822
:103E8000490F0D006E4602AF9C465FFA8CFC29007C
:103E9000C9B2795C01FB0CFC2900C9B2715C9CFBC6
:103EA000F1F1A0F86A1094465FFA8CFC2100C9B2C7
:103EB000795C01FB0CFC2100C9B2715C9CFBF1F147
:103EC000A0F86810FFBC7047000000008880000860
:103ED0009080000810B5044610460A460146204668
:103EE00000F072FE204610BD2DE9F84103000025C8
:103EF000DFF850620868E840002800F003810127DD
:103F0000D1F800C017FA05F010EA0C0C6246002A3E
:103F100000F0F6804868022802D0486812281FD1B5
:103F20002800C00803EB8000D0F820C05FF00F0E1F
:103F300015F00700C0B280001EFA00FE3CEA0E0C2D
:103F4000D1F810E015F00700C0B280001EFA00FEA4
:103F50005EEA0C0C64462800C00803EB8000046293
:103F6000D3F800C05FF0030E2800C0B240001EFA74
:103F700000F03CEA000C91F8048018F003082800D7
:103F8000C0B2400018FA00F858EA0C0CC3F800C0A0
:103F90004868012808D04868022805D048681128D8
:103FA00002D0486812281BD19C682800C0B240008B
:103FB0001EFA00F08443D1F80C802800C0B2400003
:103FC00018FA00F858EA04049C605868AF40B843F7
:103FD0004F68C7F30017AF4038438446C3F804C0A6
:103FE000DC682800C0B240001EFA00FE34EA0E046D
:103FF0008F682800C0B2400087403C43DC604868BE
:10400000C0007DD5DFF84001076857F00207076060
:10401000006810F0020000900098DFF8307128006E
:10402000800857F820C05FF00F0E15F00300C0B2F3
:1040300080001EFA00FE3CEA0E0CDFF814018342F9
:1040400001D100242EE0DFF80C01834201D10124CC
:1040500028E04148834201D1022423E03F488342C3
:1040600001D103241EE03E48834201D1042419E01B
:104070003C48834201D1052414E03B48834201D1EE
:1040800006240FE03948834201D107240AE038486A
:10409000834201D1082405E03648834201D1092436
:1040A00000E00A2415F00300C0B28000844054EA06
:1040B0000C0C2800800847F820C0306890434C68FA
:1040C000E40300D510433060746894434F68BF0325
:1040D00000D5144374605FF0B04738689043D1F85E
:1040E00004C05FEACC2C00D510433860224F3C68F6
:1040F0009443D1F804C05FEA8C2C00D514433C6093
:104100006D1CF7E6BDE8F1811300DBB2002B03D094
:104110000B009BB2836103E00B009BB21B04836125
:10412000704743690A0092B213400A0092B2934268
:1041300004D10A0092B21204826102E00A0092B233
:104140008261704780000058F44402580804005807
:10415000000002580004025800080258000C0258DF
:10416000001002580014025800180258001C02588F
:1041700000200258002402580400005810B410F027
:104180000703DFF82C4122684FF6FF010A40DFF8F1
:10419000241151EA03210A43226010BC7047DFF862
:1041A00010010068C0F302207047010009B2002925
:1041B00009D4012210F01F018A403F4903001BB2BD
:1041C0005B0941F82320704710B4020012B2002AA4
:1041D00005D40A01394B040024B21A5508E00A013B
:1041E000374B040024B214F00F04234403F8042CCA
:1041F00010BC704770B4030013F00704D4F107003B
:10420000052801D3042001E0D4F10700251D072D66
:1042100001D2002500E0E51E012616FA00F0401E3E
:104220000140A94016FA05F56D1E2A401143080009
:1042300070BC704710B50400601EB0F1807F01D3E0
:1042400001200EE0601E1F4908600F215FF0FF3063
:10425000FFF7BAFF00201C49086007201B490860CF
:10426000002010BD10B504002000FFF787FF10BD2F
:10427000F8B504000D001600FFF791FF07003200AB
:1042800029003800FFF7B6FF0100200000B2FFF759
:104290009BFFF1BD10B50400200000B2FFF785FFC1
:1042A00010BD10B504002000FFF7C4FF10BD0000D2
:1042B0000CED00E00000FA0500E100E000E400E0A1
:1042C00018ED00E014E000E018E000E010E000E08D
:1042D000704730B40EE00268436802440830DC07DF
:1042E00044BFA9F10104E31852F8045B43F8045BEE
:1042F000091FF9D150F8041B0029ECD130BC7047DC
:1043000010B5040011490878002801D101201BE0F4
:104310004FF47A700978B0FBF1F00D490968B1FBF0
:10432000F0F0FFF7BEFF002801D001200CE0102CB8
:1043300009D2002221005FF0FF30FFF799FF054806
:104340000460002000E0012010BD00BF100000202C
:10435000080000200400002010B50320FFF782FFB2
:10436000FEF7A8FFDFF85010DFF85020DFF85030DC
:104370001C68C4F30324145D14F01F04E0400860BB
:104380000868196811F00F01515C11F01F01C84055
:10439000DFF8301008600F20FFF7B2FF002801D0CF
:1043A000012002E000F044FC002010BDDFF81800FE
:1043B0000068000C70470000080000202080000802
:1043C000184402580C0000200010005C10B586B0A4
:1043D0003448016851F002010160006810F00200E9
:1043E000009000980320019001200290012003908A
:1043F000032004902C4C01A92000FFF775FD012239
:1044000001212000FFF780FE012202212000FFF79A
:104410007BFE012000F005F8022000F002F806B053
:1044200010BD10B504002000C0B2012805D1012242
:1044300001211D48FFF768FE14E02000C0B20228E9
:1044400005D1012202211848FFF75EFE0AE0200094
:10445000C0B2032805D1012203211348FFF754FEFF
:1044600000E0FFE710BD10B504002000C0B2012835
:1044700004D101210C48FFF754FE12E02000C0B225
:10448000022804D102210848FFF74BFE09E0200072
:10449000C0B2032804D103210348FFF742FE00E025
:1044A000FFE710BDE04402580004025810B5DFF8E1
:1044B00024440320206103206061DFF81C04A06114
:1044C000DFF81814E1614FF4806121620021A162DC
:1044D000002161620021E1622066DFF80404606669
:1044E0001020A066002020670020E06600206067A2
:1044F00078A1E01D00F0B0FBDFF8E813200000F029
:10450000ABFB2020A07110BD2DE9FE4F05000E0071
:1045100014005FF00008D5F80C9028690700B94531
:1045200003D2B7EB0900401E04E0A868B0EB090015
:104530003818401EA968B1EB0901884201D28246B1
:1045400003E0D5F808A0BAEB090AA24500D3A246B9
:10455000CDF804A00096686800EB090B019A009959
:10456000584600F085FB1AEB08085644B4EB0A04E1
:104570001AEB0909A868814501D100208146C5F8D8
:104580000C90002CC9D14046BDE8FE8F2DE9FE4FAE
:1045900004000D001600D4F80C80D4F80890B9EB94
:1045A00008094E450DD20096AA46606800EB080B3C
:1045B000009A5146584600F05BFB16EB0800E0609D
:1045C0001AE0CDF80090009802900195606800EB29
:1045D000080A029A0199504600F04AFBB6EB09001E
:1045E0000700009705EB090AD4F804B0009A514679
:1045F000584600F03DFBE760BDE8F78F01000A690F
:10460000CB68934204D38868401EC01A101801E09A
:10461000D01A401E70472DE9F14F84B00E001700EC
:10462000DFF8B0422078002801D1FFF73FFF04995E
:104630001820414304EB010010F16008B146D8F89E
:1046400010A0D8F80C0000900024009850451ED20D
:10465000D8F80800B0EB0A00B84201D2050000E02B
:104660003D000295D8F8040050440190CB46029AD0
:104670000199584600F0FCFA2C19A9447F1B15EB50
:104680000A0AD8F80800824501D100208246009825
:10469000B0EB0A00B84201D2050000E03D00002D59
:1046A0000FD00295D8F8040050440190CB46029AEE
:1046B0000199584600F0DCFA2C19A9447F1B15EB30
:1046C0000A0A002C01D0C8F810A0200005B0BDE8EF
:1046D000F08F0000525454002DE9F84F84B00500CB
:1046E0000E0014000196DFF8EC01182101FB05F122
:1046F000084410F1180738690090D7F80C8000982A
:1047000080453ED3D7F80890B9EB0809B9F1010903
:10471000A1450FD3039401980290786800EB080A32
:10472000039A0299504600F0A3FA14EB0800F860CF
:1047300001202FE0009810EB0909A14529D3D7F8F3
:1047400008A0BAEB080ACDF80CA00198029078688E
:1047500000EB080B039A0299584600F089FAB4EB73
:104760000A04002C0AD00394019850440290D7F810
:1047700004B0039A0299584600F07AFAFC600120CE
:1047800008E0DDF80090B9EB0809B9F10109A1458D
:10479000C0D2002005B0BDE8F08F2DE9F04704003D
:1047A0000D001600A846DFF82C01182101FB04F1CA
:1047B000084410F1180ADAF81400002803D002287F
:1047C00020D010D325E05046FFF718FF0700B7426E
:1047D00002D25FF0000905E0B14632004146504682
:1047E000FFF7D4FE17E05046FFF708FF0700B74277
:1047F00001D2B94600E0B1464A4641465046FFF76D
:10480000C5FE08E0320041465046FFF77DFE814676
:1048100001E05FF000094846BDE8F087F8B5040004
:104820000D001600DFF8AC000078002801D1FFF77A
:104830003DFEEFF31187202080F31188320029001C
:104840002000FFF7AAFF87F31188F2BD2DE9F84396
:1048500004000D0016001F00DDF82080DFF87490C2
:1048600099F80000002801D1FFF720FED9F81000C8
:10487000844227D2EFF31181202080F31188002C8D
:1048800016D0182000FB04F24A44956100FB04F2A4
:104890004A44D66100FB04F24A441762002200FB3E
:1048A00004F34B449A62002200FB04F04844426245
:1048B000182000FB04F04844C0F82C8081F31188D4
:1048C000002001E05FF0FF30BDE8F28380B5FFF724
:1048D000EDFD01BD584B00204C80000874440020C1
:1048E000E84F00207880000880B592B000F046F8CC
:1048F00009A81449242200F0CBF909AA00210FF2DB
:10490000290000F07AF81049086068460F4924220F
:1049100000F0BEF96A4600210FF23D0000F06DF88C
:104920000B49086013B000BD10B504000120FFF76B
:104930009AFD0849002000F028FC4FF4FA7000F0BE
:10494000DFF8F3E7DC7E000808500020007F000855
:1049500004500020008000081CB5040002200090D4
:104960000023002200210020FFF770FF0220FFF744
:104970007AFD4FF4FA7000F0C3F8F7E7EFF3058023
:1049800000280CD1EFF31080002808D1DFF8AC111B
:104990000868022806D1EFF31180002802D07FF0CA
:1049A000050008E00868002803D101200860002005
:1049B00001E05FF0FF30704780B5EFF3058000281D
:1049C0000CD1EFF31080002808D1DFF870110868CF
:1049D000022806D1EFF31180002802D07FF00500F5
:1049E0000AE00868012805D10220086000F05EFD99
:1049F000002001E05FF0FF3002BD2DE9F84785B0EF
:104A000007008846140000200490EFF3058000287A
:104A100072D1EFF3108000286ED1DFF8200100681A
:104A2000022803D1EFF31180002865D13800002857
:104A300062D0802082461820050000208DF80C00EE
:104A400003A881465FF0FF300600002C33D02068B9
:104A5000002801D020688146A069002801D0A06903
:104A60000500002D04D0392D02D22079C00701D5D0
:104A7000002042E06069002802D060698008824618
:104A8000A06800280BD0E0685C2808D320690028C3
:104A900005D06069002802D0012006000DE0A06862
:104AA00000280AD1E068002807D12069002804D135
:104AB0000020060001E000200600012E0CD1A068B5
:104AC00002902069019000954346524649463800BD
:104AD00000F06AFB04900FE0002E0DD104A80190B5
:104AE00000954346524692B24946380000F0A8FB72
:104AF000012801D000200490049806B0BDE8F0879A
:104B000038B50400EFF3058000280CD1EFF31080D6
:104B1000002808D1DFF828000068022806D1EFF34A
:104B20001180002802D07FF0050505E00025002C4B
:104B300002D0200000F08FFC280032BD0050002081
:104B400000500020074B0360074B0B60802313606D
:104B50007047064B0360064B0B604FF48073136085
:104B600070470000CC4D002074480020284E0020E3
:104B70007440002038B50400DFF84400016849079C
:104B800006D4016811F00701A14201D0012016E00E
:104B90000168C908C90021430160FEF7DDFF050077
:104BA000DFF820000068800408D4FEF7D5FF401B22
:104BB00040F2E9318842F3D3032000E0002032BD07
:104BC0000C4802580448025862F30F2262F31F4255
:104BD000401810F0030308D0C91A1FD3DB0748BFE1
:104BE00000F8012D28BF20F8022D130030B4144620
:104BF0001546103928BF20E93C00FAD8490728BFDC
:104C000020E90C0048BF40F8042D890028BF20F897
:104C1000022D48BF00F8012D30BC7047C91818BFDD
:104C200000F8012DCB0728BF00F8012D70470000C8
:104C300080B50848016851F002010160006810F079
:104C400002000090009800220F217FF00100FFF782
:104C50000FFB01BDF44402585FEA000C11F8012B70
:104C600000F8012B12B111F8012BF9E760467047EB
:104C700062B38B0708D0521E11F8013B00F8013BCC
:104C800000F024808B07F6D1830740F0208000BF1E
:104C9000103A07D330B4B1E83810103AA0E8381011
:104CA000F9D230BC530724BFB1E80810A0E80810BF
:104CB00044BF51F8043B40F8043BD20724BF31F80D
:104CC000022B20F8022B44BF0B7803707047121F91
:104CD00017D35B0009D151F8043B20F8023B1B0CB1
:104CE000121F20F8023BF6D20BE051F8043B00F80B
:104CF000013B1B0A20F8023B1B0C121F00F8013B72
:104D0000F3D238BF121D521E24BF11F8013B00F828
:104D1000013BF8D87047000070B504000D00A6688C
:104D20006068711C884206D320688555701CA0609D
:104D3000E068401CE060A068616888420DD1A2680C
:104D400021682069FFF76AFDA168884203D05FF0FF
:104D5000FF30E06001E00020A06070BD2DE9FE4F53
:104D60000700884691461E000C9CC24601255FF054
:104D7000010BCA4504D3BAFBF9FA1BF1010BF8E7A2
:104D8000B34500D2B3460D98C0071AD4002C18D0F2
:104D90000D98800705D5002E03D130208DF8000036
:104DA00002E020208DF80000002C0AD0A34508D294
:104DB000641E9DF800103800FFF7AEFFF868002869
:104DC000F2D5F868002830D4022E01D3761E05E013
:104DD000B8FBF5F001900198484502D309FB05F5B1
:104DE000F2E7B8FBF5F00190019805FB1088104838
:104DF0000199415C3800FFF78FFFF868002803D461
:104E0000B5FBF9F5002DECD10D98C0070DD5002CA0
:104E10000BD0002C09D0A34507D2641E20213800F6
:104E2000FFF77AFFF8680028F3D5BDE8F78F000098
:104E3000108000082DE9FE4F06000F0090461D006F
:104E40000C9CDDF83490002F02D5D7F1000A00E069
:104E5000BA465FF0010BC24504DB9AFBF8FA1BF17E
:104E6000010BF8E7AB4500D2AB46002C05D0002F74
:104E700002D45FEA497000D5641E5FEA897001D5EB
:104E8000002D10D05FEAC9700DD4002C0BD0002C7F
:104E900009D0A34507D2641E20213000FFF73CFF54
:104EA000F0680028F3D5F068002831D4002F05D52C
:104EB0007F422D213000FFF72FFF06E05FEA4970A7
:104EC00003D52B213000FFF727FFF06800281FD4FF
:104ED00019F0030002280FD1002D0DD1002C0BD0AA
:104EE000002C09D0A34507D2641E30213000FFF703
:104EF00013FFF0680028F3D5F068002808D4CDF837
:104F0000049000942B00424639003000FFF726FF42
:104F1000BDE8F78F2DE9F14F98B08946150007A835
:104F200002904020039000200490189806900020E2
:104F3000059099F80000060019F101093000C0B28F
:104F4000002800F00F813000C0B2252840F0018118
:104F5000002080460120040099F80000060030007F
:104F6000C0B2232815D02B280ED02D2802D03028EF
:104F700005D013E058F0010819F1010910E058F0CC
:104F8000020819F101090BE058F0040819F10109B0
:104F900006E058F0080819F1010901E000200400BA
:104FA000002CD9D10020824699F80000060030007C
:104FB000C0B2302803DB3000C0B23A2808DB002042
:104FC000070099F800100800C0B22E2820D109E08F
:104FD00019F101090A2000FB0AFA5AFA86FABAF115
:104FE000300AE1E719F1010999F800000100080011
:104FF000C0B2302803DB0800C0B23A2800DB07E06B
:1050000019F101090A20474357FA81F7303FEBE7CE
:1050100099F800603000C0B26C2803D03000C0B2F4
:10502000682805D119F1010999F800000600F1E797
:105030003000C0B2252800F08480582841D0632871
:105040000AD0642817D0702868D073284CD07528EF
:1050500024D0782835D079E028682860286800684E
:105060002968091D29600400A3465946C9B202A84F
:10507000FFF752FE6AE028682860286800682968FF
:10508000091D29600400CDF80480CDF800A03B0084
:105090000A22210002A8FFF7CDFE57E02868286009
:1050A000286800682968091D29600400CDF804807B
:1050B000CDF800A03B000A22210002A8FFF74EFE17
:1050C00044E028682860286800682968091D29606C
:1050D0000400CDF80480CDF800A03B001022210090
:1050E00002A8FFF73BFE31E0286828602868D0F866
:1050F00000B02868001D28609BF8000006001BF126
:10510000010B3000C0B2002807D03100C9B202A89C
:10511000FFF702FE05980028EED517E02868286002
:10512000286800682968091D296004000020019092
:105130000820009008231022210002A8FFF70EFE8D
:1051400004E0252102A8FFF7E7FDFFE719F10109B7
:1051500004E03100C9B202A8FFF7DEFD059800287F
:105160007FF5E7AE059801280BDB0498002804D0F2
:10517000049A07A91898FFF751FB0599049841185C
:105180000591059819B0BDE8F08F0CB438B504004E
:105190000D0004A800906A4629002000FFF7BAFE1F
:1051A00032BC5DF80CFB00002DE9F84785B0060025
:1051B0000F00904699460F9C109D002C07D150205F
:1051C00080F31188BFF34F8FBFF36F8FFEE7002D81
:1051D00007D1502080F31188BFF34F8FBFF36F8F3B
:1051E000FEE75C20009000985C2807D0502080F3F8
:1051F0001188BFF34F8FBFF36F8FFEE7002D19D0DB
:10520000002C17D0AA46CAF8304002208AF859006C
:1052100000200390CDF808A004A801900E980090FB
:105220004B4642463900300000F043F8504600F04B
:10523000B0F801E000200490049806B0BDE8F087C3
:105240002DE9F84384B006000F0090469946404689
:1052500080B2800000F01CFD0500002D0BD05C200A
:1052600000F016FD0400002C01D0256304E02800A6
:1052700000F09EFD00E00024002C15D0002084F8F2
:1052800059000020039002940D9801900C98009012
:105290004B46424692B23900300000F00AF8200036
:1052A00000F077F8012001E05FF0FF3005B0BDE8C5
:1052B000F0832DE9F14F82B00D0016001F00DDF8DC
:1052C00030800D9CDDF83890B00000905FF0A50BA9
:1052D000D9F830A05A4600995046FFF775FCD9F826
:1052E000300000EB8600B0F1040A5FEADA0A5FEAF8
:1052F000CA0A1AF00700002807D0502080F311884E
:10530000BFF34F8FBFF36F8FFEE75FF0000BBBF172
:10531000100F0CD215F80B0009EB0B0181F83400CB
:1053200015F80B00002802D01BF1010BEFE700205D
:1053300089F84300B8F1380F01D337208046C9F807
:105340002C80C9F84C800020C9F8500019F10400E5
:1053500000F0E7FD19F1180000F0E3FDC9F8109026
:10536000D8F13800C9F81800C9F824900020C9F80D
:105370005400002089F858003A000299504600F085
:105380000FFEC9F80000002C01D0C4F80090BDE861
:10539000F78F38B5040000F093FEDFF8B813086803
:1053A000401C0860DFF8B0532868002806D12C6044
:1053B000086801280DD100F017FB0AE0DFF82C0483
:1053C0000068002805D1E06A2968C96A884200D3CC
:1053D0002C60DFF81C040168491C016000686064EF
:1053E000002C0DD0200001F02BFB2168206B091A46
:1053F0000091236BE26A14F13401200001F0B2FC49
:10540000200001F075FBDFF820040168E26A914298
:1054100001D2E16A0160211DDFF81024E36A142043
:10542000434302EB030000F07FFD00F063FEDFF872
:10543000BC03006800280DD02868C06AE16A884271
:1054400008D25FF08050DFF8C4140860BFF34F8FBC
:10545000BFF36F8F31BD38B505000024002D19D082
:10546000DFF814040068002807D0502080F311886A
:10547000BFF34F8FBFF36F8FFEE700F064F8290092
:10548000232001F005F80021280000F0A3FB00F024
:1054900060F80400002C08D15FF08050DFF86C1435
:1054A0000860BFF34F8FBFF36F8F31BD10B586B06B
:1054B000002004900020039005AA03A904A8FFF788
:1054C00041FBDFF84C4604980290039801900020BD
:1054D00000900023059ADFF8D4160FF2E940FFF799
:1054E00063FE20602068002801D0012400E0002431
:1054F000012C02D101F09AFC0400012C16D150209D
:1055000080F31188BFF34F8FBFF36F8F5FF0FF30D1
:10551000DFF89C1608600120DFF8D0120860002038
:10552000DFF8E413086000F064FD0AE014F1010FF5
:1055300007D1502080F31188BFF34F8FBFF36F8FD7
:10554000FEE706B010BDDFF830030168491C0160BA
:105550007047F8B500250026DFF81C4320680028B6
:1055600007D1502080F31188BFF34F8FBFF36F8FA7
:10557000FEE700F0A5FD2068401E2060206800289E
:1055800058D174480068002854D0DFF880150868A6
:10559000002829D0C868C068050015F1180000F07F
:1055A000EAFC281D00F0E7FC280001F0A1FADFF872
:1055B00078020168EA6A914201D2E96A0160291D14
:1055C000DFF86822EB6A1420434302EB030000F08B
:1055D000ABFCE86A60490968C96A8842D5D30120F2
:1055E000DFF8D4150860D0E7002D01D000F06AFA8A
:1055F000DFF8C0753C68002C0CD000F023F80028C0
:1056000003D00120DFF8B0150860641E002CF4D12F
:1056100000203860DFF8A005006800280AD00120CB
:1056200006005FF08050DFF8E4120860BFF34F8F90
:10563000BFF36F8F00F05EFD3000F2BDDFF8C802EF
:10564000006870472DE9F04100278B48006800286A
:1056500070D1AD480468641C0460002C1CD1DFF8D4
:10566000C41208680068002807D0502080F3118811
:10567000BFF34F8FBFF36F8FFEE7D1F80080DFF8E5
:10568000A80202680A60C0F80080DFF830050168EF
:10569000491C016000F016FADFF81485D8F8000004
:1056A00084423BD3DFF87C1208680068002804D1EC
:1056B0005FF0FF30C8F8000030E00868C068C068DC
:1056C000050068680600B44202D2C8F8006025E010
:1056D000281D00F050FCA86A002803D015F118001E
:1056E00000F049FC280001F003FA4F480168EA6A1B
:1056F000914201D2E96A0160291D4C4AEB6A1420EB
:10570000434302EB030000F00FFCE86A124909680A
:10571000C96A8842C6D301200700C3E70E48006863
:105720004249C26A142042438858022807D3012004
:10573000070004E0DFF87C040168491C0160DFF821
:1057400078040068002801D0012007003800BDE877
:10575000F08100003C5000202C50002010B546483D
:105760000068002804D00120DFF84C1408603CE0F9
:105770000020DFF8441408602B4A106814232B4CD7
:1057800003FB00F1615800290BD1002807D15021FB
:1057900081F31188BFF34F8FBFF36F8FFEE7401E79
:1057A000ECE703FB00F304EB03014B685B684B6021
:1057B0004B6811F10804A34202D14B685B684B604F
:1057C000DFF8FC434968C968216010600522DFF8F2
:1057D000DC132068343001F06FFD002803D020680E
:1057E00001F05AF901E001F018F910BD485000200D
:1057F0005850002038B504000D00002C07D150206F
:1058000080F31188BFF34F8FBFF36F8FFEE7DFF890
:10581000B003006810F11801200000F091FB012195
:10582000280000F0D7F931BD44500020143C00207E
:1058300070B505000E001400002D07D1502080F334
:105840001188BFF34F8FBFF36F8FFEE7DFF8700350
:10585000006810F11801280000F066FB002C02D04F
:105860005FF0FF300600242000F0FEFD2100300034
:1058700000F0B0F970BD00006450002038B505009C
:10588000E868C468002C07D1502080F31188BFF36A
:105890004F8FBFF36F8FFEE714F1180000F06BFB22
:1058A000DFF824030068002818D1201D00F063FBF6
:1058B000200001F01DF9DFF814030168E26A91424B
:1058C00001D2E16A0160211DDFF80423E36A14209C
:1058D000434302EB030000F027FB05E014F118013D
:1058E000DFF8280200F020FBDFF8D4020068C06A6D
:1058F000E16A884205D201200121DFF8C822116047
:1059000000E0002032BD00004050002004ED00E027
:10591000DFF8A81209680160DFF8441309684160E4
:105920007047000030500020345000202DE9F04135
:1059300004000D00002C07D1502080F31188BFF324
:105940004F8FBFF36F8FFEE7002D07D1502080F3FC
:105950001188BFF34F8FBFF36F8FFEE700F0B0FBEE
:10596000DFF8FC0206686768F71B286810F1010F72
:1059700002D15FF000081BE0DFF8400200682168F8
:10598000884205D06068864202D35FF001080FE0CC
:105990002868874208D22868C01B28602000FFF7CB
:1059A000B7FF5FF0000803E0002028605FF0010807
:1059B00000F0A0FB4046BDE8F0810120DFF80412B2
:1059C0000860704710B5040000F038F8DFF80002F6
:1059D00000680228F8D35FF0805028490860BFF3C0
:1059E0004F8FBFF36F8FEFE770B50024382C09D2CB
:1059F000DFF8DC01142101FB04F1084400F082FA15
:105A0000641CF3E7DFF85C52280000F07BFADFF853
:105A10005862300000F076FA3C4800F073FADFF884
:105A20004C0200F06FFADFF8480200F06BFADFF882
:105A300044020560DFF84002066070BD38B5DFF84B
:105A40003C522868002817D000F03AFBDFF81C020F
:105A5000C068C0680400201D00F08DFADFF8200245
:105A60000168491E01602868401E286000F042FB62
:105A7000200000F005F8E2E731BD000004ED00E091
:105A800010B5040094F85900002806D1206B00F0EE
:105A90008FF9200000F08CF913E094F859000128E8
:105AA00003D1200000F084F90BE094F8590002289B
:105AB00007D0502080F31188BFF34F8FBFF36F8F53
:105AC000FEE710BDDFF8AC2110680068002804D1A3
:105AD0005FF0FF30364A106006E01068C068C068AA
